{
  "_format": "hh-sol-artifact-1",
  "contractName": "BuyMeACoffee",
  "sourceName": "contracts/BuyMeACoffee.sol",
  "abi": [
    {
      "inputs": [],
      "stateMutability": "nonpayable",
      "type": "constructor"
    },
    {
      "anonymous": false,
      "inputs": [
        {
          "indexed": true,
          "internalType": "address",
          "name": "from",
          "type": "address"
        },
        {
          "indexed": false,
          "internalType": "uint256",
          "name": "timestamp",
          "type": "uint256"
        },
        {
          "indexed": false,
          "internalType": "uint256",
          "name": "amount",
          "type": "uint256"
        },
        {
          "indexed": false,
          "internalType": "string",
          "name": "name",
          "type": "string"
        },
        {
          "indexed": false,
          "internalType": "string",
          "name": "message",
          "type": "string"
        }
      ],
      "name": "NewMemo",
      "type": "event"
    },
    {
      "inputs": [
        {
          "internalType": "string",
          "name": "_name",
          "type": "string"
        },
        {
          "internalType": "string",
          "name": "_message",
          "type": "string"
        }
      ],
      "name": "buyCoffee",
      "outputs": [],
      "stateMutability": "payable",
      "type": "function"
    },
    {
      "inputs": [],
      "name": "getMemos",
      "outputs": [
        {
          "components": [
            {
              "internalType": "address",
              "name": "from",
              "type": "address"
            },
            {
              "internalType": "uint256",
              "name": "timestamp",
              "type": "uint256"
            },
            {
              "internalType": "uint256",
              "name": "amount",
              "type": "uint256"
            },
            {
              "internalType": "string",
              "name": "name",
              "type": "string"
            },
            {
              "internalType": "string",
              "name": "message",
              "type": "string"
            }
          ],
          "internalType": "struct BuyMeACoffee.Memo[]",
          "name": "",
          "type": "tuple[]"
        }
      ],
      "stateMutability": "view",
      "type": "function"
    },
    {
      "inputs": [],
      "name": "owner",
      "outputs": [
        {
          "internalType": "address payable",
          "name": "",
          "type": "address"
        }
      ],
      "stateMutability": "view",
      "type": "function"
    },
    {
      "inputs": [
        {
          "internalType": "address",
          "name": "newOwner",
          "type": "address"
        }
      ],
      "name": "transferOwnership",
      "outputs": [],
      "stateMutability": "nonpayable",
      "type": "function"
    },
    {
      "inputs": [],
      "name": "withdrawTips",
      "outputs": [],
      "stateMutability": "nonpayable",
      "type": "function"
    }
  ],
  "bytecode": "0x608060405234801561001057600080fd5b50336000806101000a81548173ffffffffffffffffffffffffffffffffffffffff021916908373ffffffffffffffffffffffffffffffffffffffff160217905550610f17806100606000396000f3fe60806040526004361061004a5760003560e01c8063204206e11461004f5780633aaa74b21461006b578063865c5172146100825780638da5cb5b146100ad578063f2fde38b146100d8575b600080fd5b61006960048036038101906100649190610806565b610101565b005b34801561007757600080fd5b5061008061029b565b005b34801561008e57600080fd5b5061009761036b565b6040516100a49190610b05565b60405180910390f35b3480156100b957600080fd5b506100c2610558565b6040516100cf9190610aea565b60405180910390f35b3480156100e457600080fd5b506100ff60048036038101906100fa91906107dd565b61057c565b005b60003411610144576040517f08c379a000000000000000000000000000000000000000000000000000000000815260040161013b90610b67565b60405180910390fd5b60016040518060a001604052803373ffffffffffffffffffffffffffffffffffffffff16815260200142815260200134815260200184815260200183815250908060018154018082558091505060019003906000526020600020906005020160009091909190915060008201518160000160006101000a81548173ffffffffffffffffffffffffffffffffffffffff021916908373ffffffffffffffffffffffffffffffffffffffff160217905550602082015181600101556040820151816002015560608201518160030190805190602001906102239291906106bd565b5060808201518160040190805190602001906102409291906106bd565b5050503373ffffffffffffffffffffffffffffffffffffffff167f41a8d906af7d03e18179cb2ca0d47fc3852ba7bbf0bcb4dd5ccf7b7b3877f1a34234858560405161028f9493929190610ba7565b60405180910390a25050565b60008060009054906101000a900473ffffffffffffffffffffffffffffffffffffffff1673ffffffffffffffffffffffffffffffffffffffff16476040516102e290610ad5565b60006040518083038185875af1925050503d806000811461031f576040519150601f19603f3d011682016040523d82523d6000602084013e610324565b606091505b5050905080610368576040517f08c379a000000000000000000000000000000000000000000000000000000000815260040161035f90610b27565b60405180910390fd5b50565b60606001805480602002602001604051908101604052809291908181526020016000905b8282101561054f57838290600052602060002090600502016040518060a00160405290816000820160009054906101000a900473ffffffffffffffffffffffffffffffffffffffff1673ffffffffffffffffffffffffffffffffffffffff1673ffffffffffffffffffffffffffffffffffffffff168152602001600182015481526020016002820154815260200160038201805461042c90610d51565b80601f016020809104026020016040519081016040528092919081815260200182805461045890610d51565b80156104a55780601f1061047a576101008083540402835291602001916104a5565b820191906000526020600020905b81548152906001019060200180831161048857829003601f168201915b505050505081526020016004820180546104be90610d51565b80601f01602080910402602001604051908101604052809291908181526020018280546104ea90610d51565b80156105375780601f1061050c57610100808354040283529160200191610537565b820191906000526020600020905b81548152906001019060200180831161051a57829003601f168201915b5050505050815250508152602001906001019061038f565b50505050905090565b60008054906101000a900473ffffffffffffffffffffffffffffffffffffffff1681565b60008054906101000a900473ffffffffffffffffffffffffffffffffffffffff1673ffffffffffffffffffffffffffffffffffffffff163373ffffffffffffffffffffffffffffffffffffffff161461060a576040517f08c379a000000000000000000000000000000000000000000000000000000000815260040161060190610b47565b60405180910390fd5b600073ffffffffffffffffffffffffffffffffffffffff168173ffffffffffffffffffffffffffffffffffffffff16141561067a576040517f08c379a000000000000000000000000000000000000000000000000000000000815260040161067190610b87565b60405180910390fd5b806000806101000a81548173ffffffffffffffffffffffffffffffffffffffff021916908373ffffffffffffffffffffffffffffffffffffffff16021790555050565b8280546106c990610d51565b90600052602060002090601f0160209004810192826106eb5760008555610732565b82601f1061070457805160ff1916838001178555610732565b82800160010185558215610732579182015b82811115610731578251825591602001919060010190610716565b5b50905061073f9190610743565b5090565b5b8082111561075c576000816000905550600101610744565b5090565b600061077361076e84610c1f565b610bfa565b90508281526020810184848401111561078b57600080fd5b610796848285610d0f565b509392505050565b6000813590506107ad81610eca565b92915050565b600082601f8301126107c457600080fd5b81356107d4848260208601610760565b91505092915050565b6000602082840312156107ef57600080fd5b60006107fd8482850161079e565b91505092915050565b6000806040838503121561081957600080fd5b600083013567ffffffffffffffff81111561083357600080fd5b61083f858286016107b3565b925050602083013567ffffffffffffffff81111561085c57600080fd5b610868858286016107b3565b9150509250929050565b600061087e8383610a3a565b905092915050565b61088f81610cd3565b82525050565b61089e81610cc1565b82525050565b60006108af82610c60565b6108b98185610c83565b9350836020820285016108cb85610c50565b8060005b8581101561090757848403895281516108e88582610872565b94506108f383610c76565b925060208a019950506001810190506108cf565b50829750879550505050505092915050565b600061092482610c6b565b61092e8185610c9f565b935061093e818560208601610d1e565b61094781610e12565b840191505092915050565b600061095d82610c6b565b6109678185610cb0565b9350610977818560208601610d1e565b61098081610e12565b840191505092915050565b6000610998601783610cb0565b91506109a382610e23565b602082019050919050565b60006109bb600d83610cb0565b91506109c682610e4c565b602082019050919050565b60006109de601983610cb0565b91506109e982610e75565b602082019050919050565b6000610a01600083610c94565b9150610a0c82610e9e565b600082019050919050565b6000610a24602083610cb0565b9150610a2f82610ea1565b602082019050919050565b600060a083016000830151610a526000860182610895565b506020830151610a656020860182610ab7565b506040830151610a786040860182610ab7565b5060608301518482036060860152610a908282610919565b91505060808301518482036080860152610aaa8282610919565b9150508091505092915050565b610ac081610d05565b82525050565b610acf81610d05565b82525050565b6000610ae0826109f4565b9150819050919050565b6000602082019050610aff6000830184610886565b92915050565b60006020820190508181036000830152610b1f81846108a4565b905092915050565b60006020820190508181036000830152610b408161098b565b9050919050565b60006020820190508181036000830152610b60816109ae565b9050919050565b60006020820190508181036000830152610b80816109d1565b9050919050565b60006020820190508181036000830152610ba081610a17565b9050919050565b6000608082019050610bbc6000830187610ac6565b610bc96020830186610ac6565b8181036040830152610bdb8185610952565b90508181036060830152610bef8184610952565b905095945050505050565b6000610c04610c15565b9050610c108282610d83565b919050565b6000604051905090565b600067ffffffffffffffff821115610c3a57610c39610de3565b5b610c4382610e12565b9050602081019050919050565b6000819050602082019050919050565b600081519050919050565b600081519050919050565b6000602082019050919050565b600082825260208201905092915050565b600081905092915050565b600082825260208201905092915050565b600082825260208201905092915050565b6000610ccc82610ce5565b9050919050565b6000610cde82610ce5565b9050919050565b600073ffffffffffffffffffffffffffffffffffffffff82169050919050565b6000819050919050565b82818337600083830152505050565b60005b83811015610d3c578082015181840152602081019050610d21565b83811115610d4b576000848401525b50505050565b60006002820490506001821680610d6957607f821691505b60208210811415610d7d57610d7c610db4565b5b50919050565b610d8c82610e12565b810181811067ffffffffffffffff82111715610dab57610daa610de3565b5b80604052505050565b7f4e487b7100000000000000000000000000000000000000000000000000000000600052602260045260246000fd5b7f4e487b7100000000000000000000000000000000000000000000000000000000600052604160045260246000fd5b6000601f19601f8301169050919050565b7f4661696c656420746f2077697468647261772074697073000000000000000000600082015250565b7f4d757374206265206f776e657200000000000000000000000000000000000000600082015250565b7f596f75206d75737420696e636c75646520736f6d652045544800000000000000600082015250565b50565b7f4e6577206f776e65722063616e6e6f74206265207a65726f2061646472657373600082015250565b610ed381610cc1565b8114610ede57600080fd5b5056fea264697066735822122057da295cb65d8bdb63079d983e92fb4513f39fb3679760b0faa87975f4fd4dd164736f6c63430008040033",
  "linkReferences": {},
  "deployedLinkReferences": {}
}